{
    "contractName": "L1Bridge",
    "abi": [
        {
            "inputs": [
                {
                    "internalType": "address",
                    "name": "_sequencer",
                    "type": "address"
                }
            ],
            "stateMutability": "nonpayable",
            "type": "constructor"
        },
        {
            "inputs": [
                {
                    "internalType": "address",
                    "name": "owner",
                    "type": "address"
                }
            ],
            "name": "OwnableInvalidOwner",
            "type": "error"
        },
        {
            "inputs": [
                {
                    "internalType": "address",
                    "name": "account",
                    "type": "address"
                }
            ],
            "name": "OwnableUnauthorizedAccount",
            "type": "error"
        },
        {
            "inputs": [],
            "name": "ReentrancyGuardReentrantCall",
            "type": "error"
        },
        {
            "anonymous": false,
            "inputs": [
                {
                    "indexed": true,
                    "internalType": "address",
                    "name": "token",
                    "type": "address"
                },
                {
                    "indexed": true,
                    "internalType": "address",
                    "name": "depositor",
                    "type": "address"
                },
                {
                    "indexed": true,
                    "internalType": "address",
                    "name": "l2Recipient",
                    "type": "address"
                },
                {
                    "indexed": false,
                    "internalType": "uint256",
                    "name": "amount",
                    "type": "uint256"
                },
                {
                    "indexed": false,
                    "internalType": "uint256",
                    "name": "nonce",
                    "type": "uint256"
                }
            ],
            "name": "Deposited",
            "type": "event"
        },
        {
            "anonymous": false,
            "inputs": [
                {
                    "indexed": true,
                    "internalType": "address",
                    "name": "previousOwner",
                    "type": "address"
                },
                {
                    "indexed": true,
                    "internalType": "address",
                    "name": "newOwner",
                    "type": "address"
                }
            ],
            "name": "OwnershipTransferred",
            "type": "event"
        },
        {
            "anonymous": false,
            "inputs": [
                {
                    "indexed": true,
                    "internalType": "bytes32",
                    "name": "withdrawalId",
                    "type": "bytes32"
                },
                {
                    "indexed": true,
                    "internalType": "address",
                    "name": "recipient",
                    "type": "address"
                },
                {
                    "indexed": false,
                    "internalType": "uint256",
                    "name": "amount",
                    "type": "uint256"
                }
            ],
            "name": "WithdrawalFinalized",
            "type": "event"
        },
        {
            "anonymous": false,
            "inputs": [
                {
                    "indexed": true,
                    "internalType": "bytes32",
                    "name": "withdrawalId",
                    "type": "bytes32"
                },
                {
                    "indexed": true,
                    "internalType": "address",
                    "name": "token",
                    "type": "address"
                },
                {
                    "indexed": true,
                    "internalType": "address",
                    "name": "recipient",
                    "type": "address"
                },
                {
                    "indexed": false,
                    "internalType": "uint256",
                    "name": "amount",
                    "type": "uint256"
                }
            ],
            "name": "WithdrawalInitiated",
            "type": "event"
        },
        {
            "inputs": [],
            "name": "CHALLENGE_PERIOD",
            "outputs": [
                {
                    "internalType": "uint256",
                    "name": "",
                    "type": "uint256"
                }
            ],
            "stateMutability": "view",
            "type": "function"
        },
        {
            "inputs": [
                {
                    "internalType": "address",
                    "name": "l1Token",
                    "type": "address"
                },
                {
                    "internalType": "address",
                    "name": "l2Token",
                    "type": "address"
                }
            ],
            "name": "addTokenMapping",
            "outputs": [],
            "stateMutability": "nonpayable",
            "type": "function"
        },
        {
            "inputs": [
                {
                    "internalType": "address",
                    "name": "token",
                    "type": "address"
                },
                {
                    "internalType": "uint256",
                    "name": "amount",
                    "type": "uint256"
                },
                {
                    "internalType": "address",
                    "name": "l2Recipient",
                    "type": "address"
                }
            ],
            "name": "depositERC20",
            "outputs": [],
            "stateMutability": "nonpayable",
            "type": "function"
        },
        {
            "inputs": [
                {
                    "internalType": "address",
                    "name": "l2Recipient",
                    "type": "address"
                }
            ],
            "name": "depositETH",
            "outputs": [],
            "stateMutability": "payable",
            "type": "function"
        },
        {
            "inputs": [],
            "name": "depositNonce",
            "outputs": [
                {
                    "internalType": "uint256",
                    "name": "",
                    "type": "uint256"
                }
            ],
            "stateMutability": "view",
            "type": "function"
        },
        {
            "inputs": [
                {
                    "internalType": "bytes32",
                    "name": "withdrawalId",
                    "type": "bytes32"
                }
            ],
            "name": "finalizeWithdrawal",
            "outputs": [],
            "stateMutability": "nonpayable",
            "type": "function"
        },
        {
            "inputs": [
                {
                    "internalType": "address",
                    "name": "token",
                    "type": "address"
                },
                {
                    "internalType": "address",
                    "name": "recipient",
                    "type": "address"
                },
                {
                    "internalType": "uint256",
                    "name": "amount",
                    "type": "uint256"
                },
                {
                    "internalType": "bytes32",
                    "name": "withdrawalId",
                    "type": "bytes32"
                }
            ],
            "name": "initiateWithdrawal",
            "outputs": [],
            "stateMutability": "nonpayable",
            "type": "function"
        },
        {
            "inputs": [],
            "name": "owner",
            "outputs": [
                {
                    "internalType": "address",
                    "name": "",
                    "type": "address"
                }
            ],
            "stateMutability": "view",
            "type": "function"
        },
        {
            "inputs": [
                {
                    "internalType": "bytes32",
                    "name": "",
                    "type": "bytes32"
                }
            ],
            "name": "pendingWithdrawals",
            "outputs": [
                {
                    "internalType": "address",
                    "name": "token",
                    "type": "address"
                },
                {
                    "internalType": "address",
                    "name": "recipient",
                    "type": "address"
                },
                {
                    "internalType": "uint256",
                    "name": "amount",
                    "type": "uint256"
                },
                {
                    "internalType": "uint256",
                    "name": "timestamp",
                    "type": "uint256"
                }
            ],
            "stateMutability": "view",
            "type": "function"
        },
        {
            "inputs": [
                {
                    "internalType": "bytes32",
                    "name": "",
                    "type": "bytes32"
                }
            ],
            "name": "processedWithdrawals",
            "outputs": [
                {
                    "internalType": "bool",
                    "name": "",
                    "type": "bool"
                }
            ],
            "stateMutability": "view",
            "type": "function"
        },
        {
            "inputs": [],
            "name": "renounceOwnership",
            "outputs": [],
            "stateMutability": "nonpayable",
            "type": "function"
        },
        {
            "inputs": [],
            "name": "sequencer",
            "outputs": [
                {
                    "internalType": "address",
                    "name": "",
                    "type": "address"
                }
            ],
            "stateMutability": "view",
            "type": "function"
        },
        {
            "inputs": [
                {
                    "internalType": "address",
                    "name": "",
                    "type": "address"
                }
            ],
            "name": "tokenMapping",
            "outputs": [
                {
                    "internalType": "address",
                    "name": "",
                    "type": "address"
                }
            ],
            "stateMutability": "view",
            "type": "function"
        },
        {
            "inputs": [
                {
                    "internalType": "address",
                    "name": "newOwner",
                    "type": "address"
                }
            ],
            "name": "transferOwnership",
            "outputs": [],
            "stateMutability": "nonpayable",
            "type": "function"
        },
        {
            "inputs": [
                {
                    "internalType": "address",
                    "name": "_sequencer",
                    "type": "address"
                }
            ],
            "name": "updateSequencer",
            "outputs": [],
            "stateMutability": "nonpayable",
            "type": "function"
        },
        {
            "stateMutability": "payable",
            "type": "receive"
        }
    ],
    "bytecode": "60803460d157601f610c2338819003918201601f19168301916001600160401b0383118484101760d55780849260209460405283398101031260d157516001600160a01b0381169081900360d15760015f55801560be57600180546001600160a01b031981168317909155604051919081906001600160a01b03167f8be0079c531659141344cd1fd0a4f28419497f9722a3daafe3b4186f6b6457e05f80a3600280546001600160a01b031916919091179055610b3990816100ea8239f35b631e4fbdf760e01b5f525f60045260245ffd5b5f80fd5b634e487b7160e01b5f52604160045260245ffdfe6080604052600436101561001a575b3615610018575f80fd5b005b5f3560e01c80630dc1c4b21461099457806310dce426146106a75780631828686a146105205780632d2da80614610475578063357d2a6a1461034057806343ae20a3146102fd5780635c1bba38146102d5578063715018a61461027a5780638da5cb5b14610252578063b7f06ebe146101f6578063ba27f50b146101b6578063bf49d63114610187578063c3a079ed1461016a578063de35f5cb1461014d5763f2fde38b0361000e5734610149576020366003190112610149576100dc6109ee565b6100e4610abe565b6001600160a01b0316801561013657600180546001600160a01b0319811683179091556001600160a01b03167f8be0079c531659141344cd1fd0a4f28419497f9722a3daafe3b4186f6b6457e05f80a3005b631e4fbdf760e01b5f525f60045260245ffd5b5f80fd5b34610149575f366003190112610149576020600454604051908152f35b34610149575f36600319011261014957602060405162093a808152f35b34610149576020366003190112610149576004355f526005602052602060ff60405f2054166040519015158152f35b34610149576020366003190112610149576001600160a01b036101d76109ee565b165f526003602052602060018060a01b0360405f205416604051908152f35b34610149576020366003190112610149576004355f526006602052608060405f2060018060a01b038154169060018060a01b03600182015416906003600282015491015491604051938452602084015260408301526060820152f35b34610149575f366003190112610149576001546040516001600160a01b039091168152602090f35b34610149575f36600319011261014957610292610abe565b600180546001600160a01b031981169091555f906001600160a01b03167f8be0079c531659141344cd1fd0a4f28419497f9722a3daafe3b4186f6b6457e08280a3005b34610149575f366003190112610149576002546040516001600160a01b039091168152602090f35b34610149576020366003190112610149576103166109ee565b61031e610abe565b600280546001600160a01b0319166001600160a01b0392909216919091179055005b34610149576080366003190112610149576103596109ee565b610361610a04565b60025490919060643590604435906001600160a01b0316330361043f5760207fa3c92ead778bf680c35021a08d0556dc03fd1d3dd49cef4737af4af81a49840f91835f52600582526103ba60ff60405f20541615610a58565b604051946103c786610a1a565b6001600160a01b0390811680875296811683870181815260408089018581524260608b019081525f8a8152600689528390209a518b549087166001600160a01b0319918216178c55935160018c01805491909716941693909317909455925160028901555160039097019690965551908152939493a4005b60405162461bcd60e51b815260206004820152600e60248201526d27b7363c9039b2b8bab2b731b2b960911b6044820152606490fd5b6020366003190112610149576104896109ee565b610491610ae5565b34156104eb5760045460408051348152602081018390526104e2936001600160a01b03169133915f917fb045190548dadae679cfe9e337437613ca6dd73efdf984f75e56f152ccee22f091a4610ab0565b60045560015f55005b60405162461bcd60e51b815260206004820152600d60248201526c09aeae6e840e6cadcc8408aa89609b1b6044820152606490fd5b34610149576060366003190112610149576105396109ee565b602435906044356001600160a01b03811691908290036101495761055b610ae5565b6001600160a01b039081165f81815260036020526040902054909291161561066c578215610632576040516323b872dd60e01b815233600482015230602482015260448101849052926020846064815f875af1938415610627576104e2946105fa575b50600454926040519182528360208301527fb045190548dadae679cfe9e337437613ca6dd73efdf984f75e56f152ccee22f060403393a4610ab0565b61061b9060203d602011610620575b6106138183610a36565b810190610a98565b6105be565b503d610609565b6040513d5f823e3d90fd5b60405162461bcd60e51b81526020600482015260126024820152710416d6f756e74206d757374206265203e20360741b6044820152606490fd5b60405162461bcd60e51b8152602060048201526013602482015272151bdad95b881b9bdd081cdd5c1c1bdc9d1959606a1b6044820152606490fd5b34610149576020366003190112610149576004356106c3610ae5565b805f52600660205260405f20906040516106dc81610a1a565b82546001600160a01b03908116825260018401541660208201908152600284015460408301818152600390950154606084019081529192919015610958575162093a8081018091116109445742106108ff57825f52600560205261074760ff60405f20541615610a58565b5f838152600560209081526040808320805460ff19166001908117909155600690925282208281559081018290556002810182905560030155516001600160a01b03168061087557505f80808060018060a01b038551168751905af13d15610870573d67ffffffffffffffff811161085c57604051906107d1601f8201601f191660200183610a36565b81525f60203d92013e5b156108215760207fa3d4e5609a5792e2d2fd2dd97287a66a55d7a1a8d19345f1f1901e1c8329860c915b5193516040519081526001600160a01b0390941693a360015f55005b60405162461bcd60e51b8152602060048201526013602482015272115512081d1c985b9cd9995c8819985a5b1959606a1b6044820152606490fd5b634e487b7160e01b5f52604160045260245ffd5b6107db565b8151845160405163a9059cbb60e01b81526001600160a01b03909216600483015260248201529190602090839060449082905f905af1908115610627577fa3d4e5609a5792e2d2fd2dd97287a66a55d7a1a8d19345f1f1901e1c8329860c926020926108e2575b50610805565b6108f890833d8511610620576106138183610a36565b50856108dc565b60405162461bcd60e51b815260206004820152601a60248201527f4368616c6c656e676520706572696f64206e6f7420656e6465640000000000006044820152606490fd5b634e487b7160e01b5f52601160045260245ffd5b60405162461bcd60e51b815260206004820152601460248201527315da5d1a191c985dd85b081b9bdd08199bdd5b9960621b6044820152606490fd5b34610149576040366003190112610149576109ad6109ee565b6109b5610a04565b906109be610abe565b6001600160a01b039081165f90815260036020526040902080546001600160a01b03191692909116919091179055005b600435906001600160a01b038216820361014957565b602435906001600160a01b038216820361014957565b6080810190811067ffffffffffffffff82111761085c57604052565b90601f8019910116810190811067ffffffffffffffff82111761085c57604052565b15610a5f57565b60405162461bcd60e51b8152602060048201526011602482015270105b1c9958591e481c1c9bd8d95cdcd959607a1b6044820152606490fd5b90816020910312610149575180151581036101495790565b5f1981146109445760010190565b6001546001600160a01b03163303610ad257565b63118cdaa760e01b5f523360045260245ffd5b60025f5414610af45760025f55565b633ee5aeb560e01b5f5260045ffdfea2646970667358221220e675926813e779f7ff1e020bf957bcf487e1c5c9f695d1814a48a6e39e2e7dbb64736f6c634300081f0033",
    "sourcePath": "/home/aki/Desktop/projects/optimistic-rollup-mvp/contract/contracts/L1Bridge.sol",
    "compiler": {
        "name": "solc",
        "version": "0.8.31+commit.fd3a2265"
    },
    "functionHashes": {
        "CHALLENGE_PERIOD()": "c3a079ed",
        "addTokenMapping(address,address)": "0dc1c4b2",
        "depositERC20(address,uint256,address)": "1828686a",
        "depositETH(address)": "2d2da806",
        "depositNonce()": "de35f5cb",
        "finalizeWithdrawal(bytes32)": "10dce426",
        "initiateWithdrawal(address,address,uint256,bytes32)": "357d2a6a",
        "owner()": "8da5cb5b",
        "pendingWithdrawals(bytes32)": "b7f06ebe",
        "processedWithdrawals(bytes32)": "bf49d631",
        "renounceOwnership()": "715018a6",
        "sequencer()": "5c1bba38",
        "tokenMapping(address)": "ba27f50b",
        "transferOwnership(address)": "f2fde38b",
        "updateSequencer(address)": "43ae20a3"
    },
    "gasEstimates": {
        "creation": {
            "codeDepositCost": "574600",
            "executionCost": "infinite",
            "totalCost": "infinite"
        },
        "external": {
            "CHALLENGE_PERIOD()": "409",
            "addTokenMapping(address,address)": "26777",
            "depositERC20(address,uint256,address)": "infinite",
            "depositETH(address)": "56253",
            "depositNonce()": "2534",
            "finalizeWithdrawal(bytes32)": "infinite",
            "initiateWithdrawal(address,address,uint256,bytes32)": "99912",
            "owner()": "2448",
            "pendingWithdrawals(bytes32)": "8931",
            "processedWithdrawals(bytes32)": "2567",
            "renounceOwnership()": "28206",
            "sequencer()": "2404",
            "tokenMapping(address)": "2636",
            "transferOwnership(address)": "28467",
            "updateSequencer(address)": "26737"
        }
    }
}