{
    "contractName": "L2Bridge",
    "abi": [
        {
            "inputs": [
                {
                    "internalType": "address",
                    "name": "_l1Bridge",
                    "type": "address"
                },
                {
                    "internalType": "address",
                    "name": "_sequencer",
                    "type": "address"
                }
            ],
            "stateMutability": "nonpayable",
            "type": "constructor"
        },
        {
            "inputs": [
                {
                    "internalType": "address",
                    "name": "owner",
                    "type": "address"
                }
            ],
            "name": "OwnableInvalidOwner",
            "type": "error"
        },
        {
            "inputs": [
                {
                    "internalType": "address",
                    "name": "account",
                    "type": "address"
                }
            ],
            "name": "OwnableUnauthorizedAccount",
            "type": "error"
        },
        {
            "inputs": [],
            "name": "ReentrancyGuardReentrantCall",
            "type": "error"
        },
        {
            "anonymous": false,
            "inputs": [
                {
                    "indexed": true,
                    "internalType": "address",
                    "name": "l1Token",
                    "type": "address"
                },
                {
                    "indexed": true,
                    "internalType": "address",
                    "name": "l2Token",
                    "type": "address"
                },
                {
                    "indexed": true,
                    "internalType": "address",
                    "name": "to",
                    "type": "address"
                },
                {
                    "indexed": false,
                    "internalType": "uint256",
                    "name": "amount",
                    "type": "uint256"
                },
                {
                    "indexed": false,
                    "internalType": "uint256",
                    "name": "l1DepositNonce",
                    "type": "uint256"
                }
            ],
            "name": "DepositFinalized",
            "type": "event"
        },
        {
            "anonymous": false,
            "inputs": [
                {
                    "indexed": true,
                    "internalType": "address",
                    "name": "previousOwner",
                    "type": "address"
                },
                {
                    "indexed": true,
                    "internalType": "address",
                    "name": "newOwner",
                    "type": "address"
                }
            ],
            "name": "OwnershipTransferred",
            "type": "event"
        },
        {
            "anonymous": false,
            "inputs": [
                {
                    "indexed": true,
                    "internalType": "address",
                    "name": "l2Token",
                    "type": "address"
                },
                {
                    "indexed": true,
                    "internalType": "address",
                    "name": "from",
                    "type": "address"
                },
                {
                    "indexed": true,
                    "internalType": "address",
                    "name": "to",
                    "type": "address"
                },
                {
                    "indexed": false,
                    "internalType": "uint256",
                    "name": "amount",
                    "type": "uint256"
                },
                {
                    "indexed": false,
                    "internalType": "uint256",
                    "name": "nonce",
                    "type": "uint256"
                }
            ],
            "name": "WithdrawalInitiated",
            "type": "event"
        },
        {
            "inputs": [
                {
                    "internalType": "address",
                    "name": "l1Token",
                    "type": "address"
                },
                {
                    "internalType": "address",
                    "name": "l2Token",
                    "type": "address"
                }
            ],
            "name": "addTokenPair",
            "outputs": [],
            "stateMutability": "nonpayable",
            "type": "function"
        },
        {
            "inputs": [
                {
                    "internalType": "address",
                    "name": "l1Token",
                    "type": "address"
                },
                {
                    "internalType": "address",
                    "name": "to",
                    "type": "address"
                },
                {
                    "internalType": "uint256",
                    "name": "amount",
                    "type": "uint256"
                },
                {
                    "internalType": "uint256",
                    "name": "l1DepositNonce",
                    "type": "uint256"
                }
            ],
            "name": "finalizeDeposit",
            "outputs": [],
            "stateMutability": "nonpayable",
            "type": "function"
        },
        {
            "inputs": [],
            "name": "l1Bridge",
            "outputs": [
                {
                    "internalType": "address",
                    "name": "",
                    "type": "address"
                }
            ],
            "stateMutability": "view",
            "type": "function"
        },
        {
            "inputs": [
                {
                    "internalType": "address",
                    "name": "",
                    "type": "address"
                }
            ],
            "name": "l1ToL2Tokens",
            "outputs": [
                {
                    "internalType": "address",
                    "name": "",
                    "type": "address"
                }
            ],
            "stateMutability": "view",
            "type": "function"
        },
        {
            "inputs": [
                {
                    "internalType": "address",
                    "name": "",
                    "type": "address"
                }
            ],
            "name": "l2ToL1Tokens",
            "outputs": [
                {
                    "internalType": "address",
                    "name": "",
                    "type": "address"
                }
            ],
            "stateMutability": "view",
            "type": "function"
        },
        {
            "inputs": [],
            "name": "owner",
            "outputs": [
                {
                    "internalType": "address",
                    "name": "",
                    "type": "address"
                }
            ],
            "stateMutability": "view",
            "type": "function"
        },
        {
            "inputs": [],
            "name": "renounceOwnership",
            "outputs": [],
            "stateMutability": "nonpayable",
            "type": "function"
        },
        {
            "inputs": [],
            "name": "sequencer",
            "outputs": [
                {
                    "internalType": "address",
                    "name": "",
                    "type": "address"
                }
            ],
            "stateMutability": "view",
            "type": "function"
        },
        {
            "inputs": [
                {
                    "internalType": "address",
                    "name": "newOwner",
                    "type": "address"
                }
            ],
            "name": "transferOwnership",
            "outputs": [],
            "stateMutability": "nonpayable",
            "type": "function"
        },
        {
            "inputs": [
                {
                    "internalType": "address",
                    "name": "_sequencer",
                    "type": "address"
                }
            ],
            "name": "updateSequencer",
            "outputs": [],
            "stateMutability": "nonpayable",
            "type": "function"
        },
        {
            "inputs": [
                {
                    "internalType": "address",
                    "name": "l2Token",
                    "type": "address"
                },
                {
                    "internalType": "uint256",
                    "name": "amount",
                    "type": "uint256"
                },
                {
                    "internalType": "address",
                    "name": "l1Recipient",
                    "type": "address"
                }
            ],
            "name": "withdraw",
            "outputs": [],
            "stateMutability": "nonpayable",
            "type": "function"
        },
        {
            "inputs": [
                {
                    "internalType": "uint256",
                    "name": "amount",
                    "type": "uint256"
                },
                {
                    "internalType": "address",
                    "name": "l1Recipient",
                    "type": "address"
                }
            ],
            "name": "withdrawETH",
            "outputs": [],
            "stateMutability": "payable",
            "type": "function"
        },
        {
            "inputs": [],
            "name": "withdrawalNonce",
            "outputs": [
                {
                    "internalType": "uint256",
                    "name": "",
                    "type": "uint256"
                }
            ],
            "stateMutability": "view",
            "type": "function"
        },
        {
            "stateMutability": "payable",
            "type": "receive"
        }
    ],
    "bytecode": "6080346100f257601f61091938819003918201601f19168301916001600160401b038311848410176100f65780849260409485528339810103126100f257610052602061004b8361010a565b920161010a565b60015f5533156100df5760018054336001600160a01b0319821681179092556040519391906001600160a01b03167f8be0079c531659141344cd1fd0a4f28419497f9722a3daafe3b4186f6b6457e05f80a3600280546001600160a01b039283166001600160a01b031991821617909155600380549390921692169190911790556107fa908161011f8239f35b631e4fbdf760e01b5f525f60045260245ffd5b5f80fd5b634e487b7160e01b5f52604160045260245ffd5b51906001600160a01b03821682036100f25756fe6080604052600436101561001a575b3615610018575f80fd5b005b5f5f3560e01c806336118b52146105bc57806343ae20a3146105795780635c1bba381461055157806369328dec1461043c578063715018a6146103df5780637b259db4146103c15780638da5cb5b14610398578063969b53da1461036f5780639fbb82451461032e578063a7c87ec2146102be578063b44debb914610180578063c59a66921461013f5763f2fde38b146100b4575061000e565b3461013c57602036600319011261013c576100cd610691565b6100d561079d565b6001600160a01b0316801561012857600180546001600160a01b0319811683179091556001600160a01b03167f8be0079c531659141344cd1fd0a4f28419497f9722a3daafe3b4186f6b6457e08380a380f35b631e4fbdf760e01b82526004829052602482fd5b80fd5b503461013c57602036600319011261013c576020906001600160a01b03610164610691565b16815260058252604060018060a01b0391205416604051908152f35b503461013c57608036600319011261013c5761019a610691565b6101a261067b565b60035460443592906001600160a01b03163303610288576001600160a01b0390811680855260046020526040852054909116916101e083151561070a565b823b15610279576040516346154c9f60e11b81526001600160a01b0382166004820152602481018590528590818160448183895af1801561027d57610264575b50506040805194855260643560208601526001600160a01b03909116937f625d6dc0a01d6a0dd89b3d8535928097a623019ef14628f902b9fd014d7cb8b99190a480f35b8161026e91610749565b61027957845f610220565b8480fd5b6040513d84823e3d90fd5b60405162461bcd60e51b815260206004820152600e60248201526d27b7363c9039b2b8bab2b731b2b960911b6044820152606490fd5b503461013c57604036600319011261013c576102d8610691565b6102e061067b565b6102e861079d565b6001600160a01b0391821680845260046020908152604080862080546001600160a01b031990811695909616948517905592855260059052908320805490921617905580f35b503461013c57602036600319011261013c576020906001600160a01b03610353610691565b16815260048252604060018060a01b0391205416604051908152f35b503461013c578060031936011261013c576002546040516001600160a01b039091168152602090f35b503461013c578060031936011261013c576001546040516001600160a01b039091168152602090f35b503461013c578060031936011261013c576020600654604051908152f35b503461013c578060031936011261013c576103f861079d565b600180546001600160a01b0319811690915581906001600160a01b03167f8be0079c531659141344cd1fd0a4f28419497f9722a3daafe3b4186f6b6457e08280a380f35b503461054d57606036600319011261054d57610456610691565b60243591906044356001600160a01b038116919082900361054d5761047961077f565b6104848415156106a7565b6001600160a01b039081165f818152600560205260409020549092916104ac9116151561070a565b813b1561054d576040516374f4f54760e01b8152336004820152602481018590525f8160448183875af180156105425761052c575b506105229293600654926040519182528360208301527f2e55a9cfc86bd33b4f13821cdc035c3e7e98642956929bd469c92aa63907631360403393a46106e8565b6006556001815580f35b61052293505f61053b91610749565b5f926104e1565b6040513d5f823e3d90fd5b5f80fd5b3461054d575f36600319011261054d576003546040516001600160a01b039091168152602090f35b3461054d57602036600319011261054d57610592610691565b61059a61079d565b600380546001600160a01b0319166001600160a01b0392909216919091179055005b604036600319011261054d576004356105d361067b565b6105db61077f565b81340361063f57816105f16106369315156106a7565b6006549160405191825282602083015260018060a01b0316905f7f2e55a9cfc86bd33b4f13821cdc035c3e7e98642956929bd469c92aa63907631360403393a46106e8565b60065560015f55005b60405162461bcd60e51b8152602060048201526014602482015273125b98dbdc9c9958dd0811551208185b5bdd5b9d60621b6044820152606490fd5b602435906001600160a01b038216820361054d57565b600435906001600160a01b038216820361054d57565b156106ae57565b60405162461bcd60e51b81526020600482015260126024820152710416d6f756e74206d757374206265203e20360741b6044820152606490fd5b5f1981146106f65760010190565b634e487b7160e01b5f52601160045260245ffd5b1561071157565b60405162461bcd60e51b815260206004820152601060248201526f151bdad95b881b9bdd081b585c1c195960821b6044820152606490fd5b90601f8019910116810190811067ffffffffffffffff82111761076b57604052565b634e487b7160e01b5f52604160045260245ffd5b60025f541461078e5760025f55565b633ee5aeb560e01b5f5260045ffd5b6001546001600160a01b031633036107b157565b63118cdaa760e01b5f523360045260245ffdfea26469706673582212206caac523b31875f5d75dfc355df2d3896655008ad95bb964dfcdaa07e81dd42a64736f6c634300081f0033",
    "sourcePath": "/home/aki/Desktop/projects/optimistic-rollup-mvp/contract/contracts/L2Bridge.sol",
    "compiler": {
        "name": "solc",
        "version": "0.8.31+commit.fd3a2265"
    },
    "functionHashes": {
        "addTokenPair(address,address)": "a7c87ec2",
        "finalizeDeposit(address,address,uint256,uint256)": "b44debb9",
        "l1Bridge()": "969b53da",
        "l1ToL2Tokens(address)": "9fbb8245",
        "l2ToL1Tokens(address)": "c59a6692",
        "owner()": "8da5cb5b",
        "renounceOwnership()": "715018a6",
        "sequencer()": "5c1bba38",
        "transferOwnership(address)": "f2fde38b",
        "updateSequencer(address)": "43ae20a3",
        "withdraw(address,uint256,address)": "69328dec",
        "withdrawETH(uint256,address)": "36118b52",
        "withdrawalNonce()": "7b259db4"
    },
    "gasEstimates": {
        "creation": {
            "codeDepositCost": "408400",
            "executionCost": "infinite",
            "totalCost": "infinite"
        },
        "external": {
            "addTokenPair(address,address)": "51273",
            "finalizeDeposit(address,address,uint256,uint256)": "infinite",
            "l1Bridge()": "2431",
            "l1ToL2Tokens(address)": "2601",
            "l2ToL1Tokens(address)": "2667",
            "owner()": "2409",
            "renounceOwnership()": "28149",
            "sequencer()": "2318",
            "transferOwnership(address)": "28430",
            "updateSequencer(address)": "26651",
            "withdraw(address,uint256,address)": "infinite",
            "withdrawETH(uint256,address)": "56242",
            "withdrawalNonce()": "2363"
        }
    }
}