{
    "contractName": "L2Token",
    "abi": [
        {
            "inputs": [
                {
                    "internalType": "string",
                    "name": "name",
                    "type": "string"
                },
                {
                    "internalType": "string",
                    "name": "symbol",
                    "type": "string"
                },
                {
                    "internalType": "address",
                    "name": "_l1Token",
                    "type": "address"
                },
                {
                    "internalType": "address",
                    "name": "bridge",
                    "type": "address"
                }
            ],
            "stateMutability": "nonpayable",
            "type": "constructor"
        },
        {
            "inputs": [],
            "name": "AccessControlBadConfirmation",
            "type": "error"
        },
        {
            "inputs": [
                {
                    "internalType": "address",
                    "name": "account",
                    "type": "address"
                },
                {
                    "internalType": "bytes32",
                    "name": "neededRole",
                    "type": "bytes32"
                }
            ],
            "name": "AccessControlUnauthorizedAccount",
            "type": "error"
        },
        {
            "inputs": [
                {
                    "internalType": "address",
                    "name": "spender",
                    "type": "address"
                },
                {
                    "internalType": "uint256",
                    "name": "allowance",
                    "type": "uint256"
                },
                {
                    "internalType": "uint256",
                    "name": "needed",
                    "type": "uint256"
                }
            ],
            "name": "ERC20InsufficientAllowance",
            "type": "error"
        },
        {
            "inputs": [
                {
                    "internalType": "address",
                    "name": "sender",
                    "type": "address"
                },
                {
                    "internalType": "uint256",
                    "name": "balance",
                    "type": "uint256"
                },
                {
                    "internalType": "uint256",
                    "name": "needed",
                    "type": "uint256"
                }
            ],
            "name": "ERC20InsufficientBalance",
            "type": "error"
        },
        {
            "inputs": [
                {
                    "internalType": "address",
                    "name": "approver",
                    "type": "address"
                }
            ],
            "name": "ERC20InvalidApprover",
            "type": "error"
        },
        {
            "inputs": [
                {
                    "internalType": "address",
                    "name": "receiver",
                    "type": "address"
                }
            ],
            "name": "ERC20InvalidReceiver",
            "type": "error"
        },
        {
            "inputs": [
                {
                    "internalType": "address",
                    "name": "sender",
                    "type": "address"
                }
            ],
            "name": "ERC20InvalidSender",
            "type": "error"
        },
        {
            "inputs": [
                {
                    "internalType": "address",
                    "name": "spender",
                    "type": "address"
                }
            ],
            "name": "ERC20InvalidSpender",
            "type": "error"
        },
        {
            "anonymous": false,
            "inputs": [
                {
                    "indexed": true,
                    "internalType": "address",
                    "name": "owner",
                    "type": "address"
                },
                {
                    "indexed": true,
                    "internalType": "address",
                    "name": "spender",
                    "type": "address"
                },
                {
                    "indexed": false,
                    "internalType": "uint256",
                    "name": "value",
                    "type": "uint256"
                }
            ],
            "name": "Approval",
            "type": "event"
        },
        {
            "anonymous": false,
            "inputs": [
                {
                    "indexed": true,
                    "internalType": "address",
                    "name": "from",
                    "type": "address"
                },
                {
                    "indexed": false,
                    "internalType": "uint256",
                    "name": "amount",
                    "type": "uint256"
                }
            ],
            "name": "BridgeBurn",
            "type": "event"
        },
        {
            "anonymous": false,
            "inputs": [
                {
                    "indexed": true,
                    "internalType": "address",
                    "name": "to",
                    "type": "address"
                },
                {
                    "indexed": false,
                    "internalType": "uint256",
                    "name": "amount",
                    "type": "uint256"
                }
            ],
            "name": "BridgeMint",
            "type": "event"
        },
        {
            "anonymous": false,
            "inputs": [
                {
                    "indexed": true,
                    "internalType": "bytes32",
                    "name": "role",
                    "type": "bytes32"
                },
                {
                    "indexed": true,
                    "internalType": "bytes32",
                    "name": "previousAdminRole",
                    "type": "bytes32"
                },
                {
                    "indexed": true,
                    "internalType": "bytes32",
                    "name": "newAdminRole",
                    "type": "bytes32"
                }
            ],
            "name": "RoleAdminChanged",
            "type": "event"
        },
        {
            "anonymous": false,
            "inputs": [
                {
                    "indexed": true,
                    "internalType": "bytes32",
                    "name": "role",
                    "type": "bytes32"
                },
                {
                    "indexed": true,
                    "internalType": "address",
                    "name": "account",
                    "type": "address"
                },
                {
                    "indexed": true,
                    "internalType": "address",
                    "name": "sender",
                    "type": "address"
                }
            ],
            "name": "RoleGranted",
            "type": "event"
        },
        {
            "anonymous": false,
            "inputs": [
                {
                    "indexed": true,
                    "internalType": "bytes32",
                    "name": "role",
                    "type": "bytes32"
                },
                {
                    "indexed": true,
                    "internalType": "address",
                    "name": "account",
                    "type": "address"
                },
                {
                    "indexed": true,
                    "internalType": "address",
                    "name": "sender",
                    "type": "address"
                }
            ],
            "name": "RoleRevoked",
            "type": "event"
        },
        {
            "anonymous": false,
            "inputs": [
                {
                    "indexed": true,
                    "internalType": "address",
                    "name": "from",
                    "type": "address"
                },
                {
                    "indexed": true,
                    "internalType": "address",
                    "name": "to",
                    "type": "address"
                },
                {
                    "indexed": false,
                    "internalType": "uint256",
                    "name": "value",
                    "type": "uint256"
                }
            ],
            "name": "Transfer",
            "type": "event"
        },
        {
            "inputs": [],
            "name": "BRIDGE_ROLE",
            "outputs": [
                {
                    "internalType": "bytes32",
                    "name": "",
                    "type": "bytes32"
                }
            ],
            "stateMutability": "view",
            "type": "function"
        },
        {
            "inputs": [],
            "name": "DEFAULT_ADMIN_ROLE",
            "outputs": [
                {
                    "internalType": "bytes32",
                    "name": "",
                    "type": "bytes32"
                }
            ],
            "stateMutability": "view",
            "type": "function"
        },
        {
            "inputs": [],
            "name": "MINTER_ROLE",
            "outputs": [
                {
                    "internalType": "bytes32",
                    "name": "",
                    "type": "bytes32"
                }
            ],
            "stateMutability": "view",
            "type": "function"
        },
        {
            "inputs": [
                {
                    "internalType": "address",
                    "name": "owner",
                    "type": "address"
                },
                {
                    "internalType": "address",
                    "name": "spender",
                    "type": "address"
                }
            ],
            "name": "allowance",
            "outputs": [
                {
                    "internalType": "uint256",
                    "name": "",
                    "type": "uint256"
                }
            ],
            "stateMutability": "view",
            "type": "function"
        },
        {
            "inputs": [
                {
                    "internalType": "address",
                    "name": "spender",
                    "type": "address"
                },
                {
                    "internalType": "uint256",
                    "name": "value",
                    "type": "uint256"
                }
            ],
            "name": "approve",
            "outputs": [
                {
                    "internalType": "bool",
                    "name": "",
                    "type": "bool"
                }
            ],
            "stateMutability": "nonpayable",
            "type": "function"
        },
        {
            "inputs": [
                {
                    "internalType": "address",
                    "name": "account",
                    "type": "address"
                }
            ],
            "name": "balanceOf",
            "outputs": [
                {
                    "internalType": "uint256",
                    "name": "",
                    "type": "uint256"
                }
            ],
            "stateMutability": "view",
            "type": "function"
        },
        {
            "inputs": [
                {
                    "internalType": "address",
                    "name": "from",
                    "type": "address"
                },
                {
                    "internalType": "uint256",
                    "name": "amount",
                    "type": "uint256"
                }
            ],
            "name": "bridgeBurn",
            "outputs": [],
            "stateMutability": "nonpayable",
            "type": "function"
        },
        {
            "inputs": [
                {
                    "internalType": "address",
                    "name": "to",
                    "type": "address"
                },
                {
                    "internalType": "uint256",
                    "name": "amount",
                    "type": "uint256"
                }
            ],
            "name": "bridgeMint",
            "outputs": [],
            "stateMutability": "nonpayable",
            "type": "function"
        },
        {
            "inputs": [],
            "name": "decimals",
            "outputs": [
                {
                    "internalType": "uint8",
                    "name": "",
                    "type": "uint8"
                }
            ],
            "stateMutability": "view",
            "type": "function"
        },
        {
            "inputs": [
                {
                    "internalType": "bytes32",
                    "name": "role",
                    "type": "bytes32"
                }
            ],
            "name": "getRoleAdmin",
            "outputs": [
                {
                    "internalType": "bytes32",
                    "name": "",
                    "type": "bytes32"
                }
            ],
            "stateMutability": "view",
            "type": "function"
        },
        {
            "inputs": [
                {
                    "internalType": "bytes32",
                    "name": "role",
                    "type": "bytes32"
                },
                {
                    "internalType": "address",
                    "name": "account",
                    "type": "address"
                }
            ],
            "name": "grantRole",
            "outputs": [],
            "stateMutability": "nonpayable",
            "type": "function"
        },
        {
            "inputs": [
                {
                    "internalType": "bytes32",
                    "name": "role",
                    "type": "bytes32"
                },
                {
                    "internalType": "address",
                    "name": "account",
                    "type": "address"
                }
            ],
            "name": "hasRole",
            "outputs": [
                {
                    "internalType": "bool",
                    "name": "",
                    "type": "bool"
                }
            ],
            "stateMutability": "view",
            "type": "function"
        },
        {
            "inputs": [],
            "name": "l1Token",
            "outputs": [
                {
                    "internalType": "address",
                    "name": "",
                    "type": "address"
                }
            ],
            "stateMutability": "view",
            "type": "function"
        },
        {
            "inputs": [],
            "name": "name",
            "outputs": [
                {
                    "internalType": "string",
                    "name": "",
                    "type": "string"
                }
            ],
            "stateMutability": "view",
            "type": "function"
        },
        {
            "inputs": [
                {
                    "internalType": "bytes32",
                    "name": "role",
                    "type": "bytes32"
                },
                {
                    "internalType": "address",
                    "name": "callerConfirmation",
                    "type": "address"
                }
            ],
            "name": "renounceRole",
            "outputs": [],
            "stateMutability": "nonpayable",
            "type": "function"
        },
        {
            "inputs": [
                {
                    "internalType": "bytes32",
                    "name": "role",
                    "type": "bytes32"
                },
                {
                    "internalType": "address",
                    "name": "account",
                    "type": "address"
                }
            ],
            "name": "revokeRole",
            "outputs": [],
            "stateMutability": "nonpayable",
            "type": "function"
        },
        {
            "inputs": [
                {
                    "internalType": "bytes4",
                    "name": "interfaceId",
                    "type": "bytes4"
                }
            ],
            "name": "supportsInterface",
            "outputs": [
                {
                    "internalType": "bool",
                    "name": "",
                    "type": "bool"
                }
            ],
            "stateMutability": "view",
            "type": "function"
        },
        {
            "inputs": [],
            "name": "symbol",
            "outputs": [
                {
                    "internalType": "string",
                    "name": "",
                    "type": "string"
                }
            ],
            "stateMutability": "view",
            "type": "function"
        },
        {
            "inputs": [],
            "name": "totalSupply",
            "outputs": [
                {
                    "internalType": "uint256",
                    "name": "",
                    "type": "uint256"
                }
            ],
            "stateMutability": "view",
            "type": "function"
        },
        {
            "inputs": [
                {
                    "internalType": "address",
                    "name": "to",
                    "type": "address"
                },
                {
                    "internalType": "uint256",
                    "name": "value",
                    "type": "uint256"
                }
            ],
            "name": "transfer",
            "outputs": [
                {
                    "internalType": "bool",
                    "name": "",
                    "type": "bool"
                }
            ],
            "stateMutability": "nonpayable",
            "type": "function"
        },
        {
            "inputs": [
                {
                    "internalType": "address",
                    "name": "from",
                    "type": "address"
                },
                {
                    "internalType": "address",
                    "name": "to",
                    "type": "address"
                },
                {
                    "internalType": "uint256",
                    "name": "value",
                    "type": "uint256"
                }
            ],
            "name": "transferFrom",
            "outputs": [
                {
                    "internalType": "bool",
                    "name": "",
                    "type": "bool"
                }
            ],
            "stateMutability": "nonpayable",
            "type": "function"
        }
    ],
    "bytecode": "60806040523461037657611289803803806100198161037a565b9283398101906080818303126103765780516001600160401b038111610376578261004591830161039f565b602082015190926001600160401b0382116103765761006591830161039f565b9061007e6060610077604084016103f0565b92016103f0565b83519091906001600160401b03811161028757600354600181811c9116801561036c575b602082101461026957601f8111610309575b50602094601f82116001146102a6579481929394955f9261029b575b50508160011b915f199060031b1c1916176003555b8251926001600160401b03841161028757600454600181811c9116801561027d575b602082101461026957601f8111610206575b50602090601f851160011461019e5761018394915f9183610193575b50508160011b915f199060031b1c1916176004555b600680546001600160a01b0319166001600160a01b039290921691909117905561017333610404565b5061017d8161047a565b5061050d565b50604051610c6890816105a18239f35b015190505f80610135565b90601f1985169160045f52815f20925f5b8181106101ee57509160019391876101839894106101d6575b505050811b0160045561014a565b01515f1960f88460031b161c191690555f80806101c8565b929360206001819287860151815501950193016101af565b60045f527f8a35acfbc15ff81a39ae7d344fd709f28e8600b4aa8c65c6b64bfe7fe36bd19b601f860160051c8101916020871061025f575b601f0160051c01905b8181106102545750610119565b5f8155600101610247565b909150819061023e565b634e487b7160e01b5f52602260045260245ffd5b90607f1690610107565b634e487b7160e01b5f52604160045260245ffd5b015190505f806100d0565b601f1982169560035f52805f20915f5b8881106102f1575083600195969798106102d9575b505050811b016003556100e5565b01515f1960f88460031b161c191690555f80806102cb565b919260206001819286850151815501940192016102b6565b60035f527fc2575a0e9e593c00f959f8c92f12db2869c3395a3b0502d05e2516446f71f85b601f830160051c81019160208410610362575b601f0160051c01905b81811061035757506100b4565b5f815560010161034a565b9091508190610341565b90607f16906100a2565b5f80fd5b6040519190601f01601f191682016001600160401b0381118382101761028757604052565b81601f82011215610376578051906001600160401b038211610287576103ce601f8301601f191660200161037a565b928284526020838301011161037657815f9260208093018386015e8301015290565b51906001600160a01b038216820361037657565b6001600160a01b0381165f9081525f5160206112695f395f51905f52602052604090205460ff16610475576001600160a01b03165f8181525f5160206112695f395f51905f5260205260408120805460ff191660011790553391905f5160206112095f395f51905f528180a4600190565b505f90565b6001600160a01b0381165f9081525f5160206112495f395f51905f52602052604090205460ff16610475576001600160a01b03165f8181525f5160206112495f395f51905f5260205260408120805460ff191660011790553391907f52ba824bfabc2bcfcdf7f0edbb486ebb05e1836c90e78047efeb949990f72e5f905f5160206112095f395f51905f529080a4600190565b6001600160a01b0381165f9081525f5160206112295f395f51905f52602052604090205460ff16610475576001600160a01b03165f8181525f5160206112295f395f51905f5260205260408120805460ff191660011790553391907f9f2df0fed2c77648de5860a4cc508cd0818c85b8b8a1ab4ceeef8d981c8956a6905f5160206112095f395f51905f529080a460019056fe6080806040526004361015610012575f80fd5b5f3560e01c90816301ffc9a7146109c15750806306fdde03146108ef578063095ea7b31461086d57806318160ddd1461085057806323b872dd14610771578063248a9ca31461073e5780632f2ff15d14610700578063313ce567146106e557806336568abe146106a157806370a082311461066a57806374f4f547146105225780638c2a993e146103e757806391d148541461039e57806395d89b4114610283578063a217fddf14610269578063a9059cbb14610238578063b5bfddea146101fe578063c01e1bd6146101d6578063d53913931461019c578063d547741f146101575763dd62ed3e14610103575f80fd5b346101535760403660031901126101535761011c610a3e565b610124610a54565b6001600160a01b039182165f908152600160209081526040808320949093168252928352819020549051908152f35b5f80fd5b346101535760403660031901126101535761019a600435610176610a54565b90610195610190825f526005602052600160405f20015490565b610ae8565b610bae565b005b34610153575f3660031901126101535760206040517f9f2df0fed2c77648de5860a4cc508cd0818c85b8b8a1ab4ceeef8d981c8956a68152f35b34610153575f366003190112610153576006546040516001600160a01b039091168152602090f35b34610153575f3660031901126101535760206040517f52ba824bfabc2bcfcdf7f0edbb486ebb05e1836c90e78047efeb949990f72e5f8152f35b346101535760403660031901126101535761025e610254610a3e565b6024359033610a6a565b602060405160018152f35b34610153575f3660031901126101535760206040515f8152f35b34610153575f366003190112610153576040515f6004548060011c90600181168015610394575b60208310811461038057828552908115610364575060011461030f575b50819003601f01601f191681019067ffffffffffffffff8211818310176102fb576102f782918260405282610a14565b0390f35b634e487b7160e01b5f52604160045260245ffd5b905060045f527f8a35acfbc15ff81a39ae7d344fd709f28e8600b4aa8c65c6b64bfe7fe36bd19b5f905b82821061034e575060209150820101826102c7565b6001816020925483858801015201910190610339565b90506020925060ff191682840152151560051b820101826102c7565b634e487b7160e01b5f52602260045260245ffd5b91607f16916102aa565b34610153576040366003190112610153576103b7610a54565b6004355f52600560205260405f209060018060a01b03165f52602052602060ff60405f2054166040519015158152f35b3461015357604036600319011261015357610400610a3e565b335f9081527f15a28d26fa1bf736cf7edc9922607171ccb09c3c73b808e7772a3013e068a5226020526040902054602435919060ff16156104eb576001600160a01b03169081156104d8576002548181018091116104c4577f397b33b307fc137878ebfc75b295289ec0ee25a31bb5bf034f33256fe8ea2aa691602091600255835f525f825260405f20818154019055835f7fddf252ad1be2c89b69c2b068fc378daa952ba7f163c4a11628f55a4df523b3ef84604051858152a3604051908152a2005b634e487b7160e01b5f52601160045260245ffd5b63ec442f0560e01b5f525f60045260245ffd5b63e2517d3f60e01b5f52336004527f9f2df0fed2c77648de5860a4cc508cd0818c85b8b8a1ab4ceeef8d981c8956a660245260445ffd5b346101535760403660031901126101535761053b610a3e565b335f9081527f988aeb3f2a802de2ecc83b89d9bb5001cae38c2cd77d61f12e069385e0b07e356020526040902054602435919060ff1615610633576001600160a01b031690811561062057815f525f60205260405f205481811061060757817f9b5b9a05e4726d8bb959f1440e05c6b8109443f2083bc4e386237d765452655392602092855f525f84520360405f205580600254036002555f847fddf252ad1be2c89b69c2b068fc378daa952ba7f163c4a11628f55a4df523b3ef84604051858152a3604051908152a2005b8263391434e360e21b5f5260045260245260445260645ffd5b634b637e8f60e11b5f525f60045260245ffd5b63e2517d3f60e01b5f52336004527f52ba824bfabc2bcfcdf7f0edbb486ebb05e1836c90e78047efeb949990f72e5f60245260445ffd5b34610153576020366003190112610153576001600160a01b0361068b610a3e565b165f525f602052602060405f2054604051908152f35b34610153576040366003190112610153576106ba610a54565b336001600160a01b038216036106d65761019a90600435610bae565b63334bd91960e11b5f5260045ffd5b34610153575f36600319011261015357602060405160128152f35b346101535760403660031901126101535761019a60043561071f610a54565b90610739610190825f526005602052600160405f20015490565b610b22565b346101535760203660031901126101535760206107696004355f526005602052600160405f20015490565b604051908152f35b346101535760603660031901126101535761078a610a3e565b610792610a54565b6001600160a01b0382165f818152600160209081526040808320338452909152902054909260443592915f1981106107d0575b5061025e9350610a6a565b83811061083557841561082257331561080f5761025e945f52600160205260405f2060018060a01b0333165f526020528360405f2091039055846107c5565b634a1406b160e11b5f525f60045260245ffd5b63e602df0560e01b5f525f60045260245ffd5b8390637dc7a0d960e11b5f523360045260245260445260645ffd5b34610153575f366003190112610153576020600254604051908152f35b3461015357604036600319011261015357610886610a3e565b602435903315610822576001600160a01b031690811561080f57335f52600160205260405f20825f526020528060405f20556040519081527f8c5be1e5ebec7d5bd14f71427d1e84f3dd0314c0f7b2291e5b200ac8c7c3b92560203392a3602060405160018152f35b34610153575f366003190112610153576040515f6003548060011c906001811680156109b7575b6020831081146103805782855290811561036457506001146109625750819003601f01601f191681019067ffffffffffffffff8211818310176102fb576102f782918260405282610a14565b905060035f527fc2575a0e9e593c00f959f8c92f12db2869c3395a3b0502d05e2516446f71f85b5f905b8282106109a1575060209150820101826102c7565b600181602092548385880101520191019061098c565b91607f1691610916565b34610153576020366003190112610153576004359063ffffffff60e01b821680920361015357602091637965db0b60e01b8114908115610a03575b5015158152f35b6301ffc9a760e01b149050836109fc565b602060409281835280519182918282860152018484015e5f828201840152601f01601f1916010190565b600435906001600160a01b038216820361015357565b602435906001600160a01b038216820361015357565b6001600160a01b0316908115610620576001600160a01b03169182156104d857815f525f60205260405f205481811061060757817fddf252ad1be2c89b69c2b068fc378daa952ba7f163c4a11628f55a4df523b3ef92602092855f525f84520360405f2055845f525f825260405f20818154019055604051908152a3565b5f81815260056020908152604080832033845290915290205460ff1615610b0c5750565b63e2517d3f60e01b5f523360045260245260445ffd5b5f8181526005602090815260408083206001600160a01b038616845290915290205460ff16610ba8575f8181526005602090815260408083206001600160a01b0395909516808452949091528120805460ff19166001179055339291907f2f8788117e7eff1d82e926ec794901d17c78024a50270940304540a733656f0d9080a4600190565b50505f90565b5f8181526005602090815260408083206001600160a01b038616845290915290205460ff1615610ba8575f8181526005602090815260408083206001600160a01b0395909516808452949091528120805460ff19169055339291907ff6391f5c32d9c69d2a47ea670b442974b53935d1edc7fd64eb21e047a839171b9080a460019056fea2646970667358221220818a1b959e7c96825a29732b85e853f97888af22ae1a39a247fcbaad8d53127f64736f6c634300081f00332f8788117e7eff1d82e926ec794901d17c78024a50270940304540a733656f0d15a28d26fa1bf736cf7edc9922607171ccb09c3c73b808e7772a3013e068a522988aeb3f2a802de2ecc83b89d9bb5001cae38c2cd77d61f12e069385e0b07e3505b8ccbb9d4d8fb16ea74ce3c29a41f1b461fbdaff4714a0d9a8eb05499746bc",
    "sourcePath": "/home/aki/Desktop/projects/optimistic-rollup-mvp/contract/contracts/L2Token.sol",
    "compiler": {
        "name": "solc",
        "version": "0.8.31+commit.fd3a2265"
    },
    "functionHashes": {
        "BRIDGE_ROLE()": "b5bfddea",
        "DEFAULT_ADMIN_ROLE()": "a217fddf",
        "MINTER_ROLE()": "d5391393",
        "allowance(address,address)": "dd62ed3e",
        "approve(address,uint256)": "095ea7b3",
        "balanceOf(address)": "70a08231",
        "bridgeBurn(address,uint256)": "74f4f547",
        "bridgeMint(address,uint256)": "8c2a993e",
        "decimals()": "313ce567",
        "getRoleAdmin(bytes32)": "248a9ca3",
        "grantRole(bytes32,address)": "2f2ff15d",
        "hasRole(bytes32,address)": "91d14854",
        "l1Token()": "c01e1bd6",
        "name()": "06fdde03",
        "renounceRole(bytes32,address)": "36568abe",
        "revokeRole(bytes32,address)": "d547741f",
        "supportsInterface(bytes4)": "01ffc9a7",
        "symbol()": "95d89b41",
        "totalSupply()": "18160ddd",
        "transfer(address,uint256)": "a9059cbb",
        "transferFrom(address,address,uint256)": "23b872dd"
    },
    "gasEstimates": {
        "creation": {
            "codeDepositCost": "635200",
            "executionCost": "infinite",
            "totalCost": "infinite"
        },
        "external": {
            "BRIDGE_ROLE()": "505",
            "DEFAULT_ADMIN_ROLE()": "460",
            "MINTER_ROLE()": "549",
            "allowance(address,address)": "3010",
            "approve(address,uint256)": "24347",
            "balanceOf(address)": "2603",
            "bridgeBurn(address,uint256)": "54429",
            "bridgeMint(address,uint256)": "54397",
            "decimals()": "307",
            "getRoleAdmin(bytes32)": "2452",
            "grantRole(bytes32,address)": "33409",
            "hasRole(bytes32,address)": "2749",
            "l1Token()": "2654",
            "name()": "infinite",
            "renounceRole(bytes32,address)": "29017",
            "revokeRole(bytes32,address)": "33692",
            "supportsInterface(bytes4)": "270",
            "symbol()": "infinite",
            "totalSupply()": "2322",
            "transfer(address,uint256)": "51084",
            "transferFrom(address,address,uint256)": "75545"
        }
    }
}