{
    "contractName": "Paymaster",
    "abi": [
        {
            "inputs": [],
            "stateMutability": "nonpayable",
            "type": "constructor"
        },
        {
            "inputs": [],
            "name": "ECDSAInvalidSignature",
            "type": "error"
        },
        {
            "inputs": [
                {
                    "internalType": "uint256",
                    "name": "length",
                    "type": "uint256"
                }
            ],
            "name": "ECDSAInvalidSignatureLength",
            "type": "error"
        },
        {
            "inputs": [
                {
                    "internalType": "bytes32",
                    "name": "s",
                    "type": "bytes32"
                }
            ],
            "name": "ECDSAInvalidSignatureS",
            "type": "error"
        },
        {
            "inputs": [
                {
                    "internalType": "address",
                    "name": "owner",
                    "type": "address"
                }
            ],
            "name": "OwnableInvalidOwner",
            "type": "error"
        },
        {
            "inputs": [
                {
                    "internalType": "address",
                    "name": "account",
                    "type": "address"
                }
            ],
            "name": "OwnableUnauthorizedAccount",
            "type": "error"
        },
        {
            "anonymous": false,
            "inputs": [
                {
                    "indexed": true,
                    "internalType": "address",
                    "name": "from",
                    "type": "address"
                },
                {
                    "indexed": false,
                    "internalType": "uint256",
                    "name": "amount",
                    "type": "uint256"
                }
            ],
            "name": "FundsDeposited",
            "type": "event"
        },
        {
            "anonymous": false,
            "inputs": [
                {
                    "indexed": true,
                    "internalType": "address",
                    "name": "to",
                    "type": "address"
                },
                {
                    "indexed": false,
                    "internalType": "uint256",
                    "name": "amount",
                    "type": "uint256"
                }
            ],
            "name": "FundsWithdrawn",
            "type": "event"
        },
        {
            "anonymous": false,
            "inputs": [
                {
                    "indexed": true,
                    "internalType": "address",
                    "name": "user",
                    "type": "address"
                },
                {
                    "indexed": false,
                    "internalType": "uint256",
                    "name": "amount",
                    "type": "uint256"
                }
            ],
            "name": "GasPaid",
            "type": "event"
        },
        {
            "anonymous": false,
            "inputs": [
                {
                    "indexed": true,
                    "internalType": "address",
                    "name": "previousOwner",
                    "type": "address"
                },
                {
                    "indexed": true,
                    "internalType": "address",
                    "name": "newOwner",
                    "type": "address"
                }
            ],
            "name": "OwnershipTransferred",
            "type": "event"
        },
        {
            "anonymous": false,
            "inputs": [
                {
                    "indexed": true,
                    "internalType": "address",
                    "name": "user",
                    "type": "address"
                }
            ],
            "name": "UserRemoved",
            "type": "event"
        },
        {
            "anonymous": false,
            "inputs": [
                {
                    "indexed": true,
                    "internalType": "address",
                    "name": "user",
                    "type": "address"
                }
            ],
            "name": "UserSponsored",
            "type": "event"
        },
        {
            "inputs": [
                {
                    "internalType": "address",
                    "name": "user",
                    "type": "address"
                },
                {
                    "internalType": "uint256",
                    "name": "limit",
                    "type": "uint256"
                }
            ],
            "name": "addSponsoredUser",
            "outputs": [],
            "stateMutability": "nonpayable",
            "type": "function"
        },
        {
            "inputs": [
                {
                    "internalType": "address",
                    "name": "verifier",
                    "type": "address"
                }
            ],
            "name": "addVerifier",
            "outputs": [],
            "stateMutability": "nonpayable",
            "type": "function"
        },
        {
            "inputs": [],
            "name": "deposit",
            "outputs": [],
            "stateMutability": "payable",
            "type": "function"
        },
        {
            "inputs": [],
            "name": "globalSponsorship",
            "outputs": [
                {
                    "internalType": "bool",
                    "name": "",
                    "type": "bool"
                }
            ],
            "stateMutability": "view",
            "type": "function"
        },
        {
            "inputs": [
                {
                    "internalType": "address",
                    "name": "",
                    "type": "address"
                }
            ],
            "name": "nonces",
            "outputs": [
                {
                    "internalType": "uint256",
                    "name": "",
                    "type": "uint256"
                }
            ],
            "stateMutability": "view",
            "type": "function"
        },
        {
            "inputs": [],
            "name": "owner",
            "outputs": [
                {
                    "internalType": "address",
                    "name": "",
                    "type": "address"
                }
            ],
            "stateMutability": "view",
            "type": "function"
        },
        {
            "inputs": [
                {
                    "internalType": "address",
                    "name": "user",
                    "type": "address"
                }
            ],
            "name": "removeSponsoredUser",
            "outputs": [],
            "stateMutability": "nonpayable",
            "type": "function"
        },
        {
            "inputs": [
                {
                    "internalType": "address",
                    "name": "verifier",
                    "type": "address"
                }
            ],
            "name": "removeVerifier",
            "outputs": [],
            "stateMutability": "nonpayable",
            "type": "function"
        },
        {
            "inputs": [],
            "name": "renounceOwnership",
            "outputs": [],
            "stateMutability": "nonpayable",
            "type": "function"
        },
        {
            "inputs": [
                {
                    "internalType": "bool",
                    "name": "enabled",
                    "type": "bool"
                }
            ],
            "name": "setGlobalSponsorship",
            "outputs": [],
            "stateMutability": "nonpayable",
            "type": "function"
        },
        {
            "inputs": [
                {
                    "internalType": "address",
                    "name": "user",
                    "type": "address"
                }
            ],
            "name": "shouldSponsor",
            "outputs": [
                {
                    "internalType": "bool",
                    "name": "",
                    "type": "bool"
                }
            ],
            "stateMutability": "view",
            "type": "function"
        },
        {
            "inputs": [
                {
                    "internalType": "address",
                    "name": "user",
                    "type": "address"
                },
                {
                    "internalType": "uint256",
                    "name": "gasAmount",
                    "type": "uint256"
                },
                {
                    "internalType": "bytes",
                    "name": "signature",
                    "type": "bytes"
                }
            ],
            "name": "sponsorTransaction",
            "outputs": [
                {
                    "internalType": "bool",
                    "name": "",
                    "type": "bool"
                }
            ],
            "stateMutability": "nonpayable",
            "type": "function"
        },
        {
            "inputs": [
                {
                    "internalType": "address",
                    "name": "",
                    "type": "address"
                }
            ],
            "name": "sponsoredUsers",
            "outputs": [
                {
                    "internalType": "bool",
                    "name": "",
                    "type": "bool"
                }
            ],
            "stateMutability": "view",
            "type": "function"
        },
        {
            "inputs": [
                {
                    "internalType": "address",
                    "name": "newOwner",
                    "type": "address"
                }
            ],
            "name": "transferOwnership",
            "outputs": [],
            "stateMutability": "nonpayable",
            "type": "function"
        },
        {
            "inputs": [
                {
                    "internalType": "address",
                    "name": "",
                    "type": "address"
                }
            ],
            "name": "userSpendingLimit",
            "outputs": [
                {
                    "internalType": "uint256",
                    "name": "",
                    "type": "uint256"
                }
            ],
            "stateMutability": "view",
            "type": "function"
        },
        {
            "inputs": [
                {
                    "internalType": "address",
                    "name": "",
                    "type": "address"
                }
            ],
            "name": "userSpentAmount",
            "outputs": [
                {
                    "internalType": "uint256",
                    "name": "",
                    "type": "uint256"
                }
            ],
            "stateMutability": "view",
            "type": "function"
        },
        {
            "inputs": [
                {
                    "internalType": "address",
                    "name": "",
                    "type": "address"
                }
            ],
            "name": "verifiers",
            "outputs": [
                {
                    "internalType": "bool",
                    "name": "",
                    "type": "bool"
                }
            ],
            "stateMutability": "view",
            "type": "function"
        },
        {
            "inputs": [
                {
                    "internalType": "uint256",
                    "name": "amount",
                    "type": "uint256"
                }
            ],
            "name": "withdraw",
            "outputs": [],
            "stateMutability": "nonpayable",
            "type": "function"
        },
        {
            "stateMutability": "payable",
            "type": "receive"
        }
    ],
    "bytecode": "6080806040523460885733156075575f8054336001600160a01b0319821681178355916001600160a01b03909116907f8be0079c531659141344cd1fd0a4f28419497f9722a3daafe3b4186f6b6457e09080a3335f52600560205260405f20600160ff19825416179055610b0b908161008d8239f35b631e4fbdf760e01b5f525f60045260245ffd5b5f80fdfe6080806040526004361015610024575b50361561001a575f80fd5b610022610946565b005b5f3560e01c90816302f8297c14610857575080632e1a7d4d146107595780635f17f381146107215780636c824487146106e45780636cad1d061461066d578063715018a6146106165780637ecebe00146105de5780638da5cb5b146105b75780639000b3d6146105735780639abf4e2c1461053b578063b080aae4146104d6578063c28f8f8d146104a9578063c580bef61461046c578063ca2dfd0a1461042b578063d0e30db014610418578063d3bd965b146101b7578063f2fde38b146101325763f94e47fc146100f6575f61000f565b3461012e57602036600319011261012e576001600160a01b03610117610876565b165f526003602052602060405f2054604051908152f35b5f80fd5b3461012e57602036600319011261012e5761014b610876565b610153610974565b6001600160a01b031680156101a4575f80546001600160a01b03198116831782556001600160a01b0316907f8be0079c531659141344cd1fd0a4f28419497f9722a3daafe3b4186f6b6457e09080a3005b631e4fbdf760e01b5f525f60045260245ffd5b3461012e57606036600319011261012e576101d0610876565b60243560443567ffffffffffffffff811161012e573660238201121561012e57806004013567ffffffffffffffff811161012e57366024828401011161012e57610219846108de565b156103c9576102da916102d19160018060a01b03861695865f52600660205260405f20546040519060208201926bffffffffffffffffffffffff199060601b16835287603483015260548201526054815261027560748261088c565b5190207f19457468657265756d205369676e6564204d6573736167653a0a3332000000005f52601c525f6020603c8220928060246102b2826108c2565b966102c0604051988961088c565b82885201838701378401015261099a565b909291926109d4565b6001600160a01b03165f9081526005602052604090205460ff161561039157815f52600660205260405f2080545f19811461037d576001019055815f52600360205260405f205461035c575b60207f9472b7566e62841cb1b5595f7c1d891a3ed4fce14f99ab26df8991e5737d7feb91604051908152a2602060405160018152f35b815f52600460205260405f2080549180830180931161037d57919055610326565b634e487b7160e01b5f52601160045260245ffd5b60405162461bcd60e51b815260206004820152601060248201526f24b73b30b634b2103b32b934b334b2b960811b6044820152606490fd5b60405162461bcd60e51b815260206004820152602160248201527f55736572206e6f7420656c696769626c6520666f722073706f6e736f727368696044820152600760fc1b6064820152608490fd5b5f36600319011261012e57610022610946565b3461012e57602036600319011261012e57610444610876565b61044c610974565b6001600160a01b03165f908152600560205260409020805460ff19169055005b3461012e57602036600319011261012e576001600160a01b0361048d610876565b165f526001602052602060ff60405f2054166040519015158152f35b3461012e57602036600319011261012e5760206104cc6104c7610876565b6108de565b6040519015158152f35b3461012e57602036600319011261012e576104ef610876565b6104f7610974565b6001600160a01b03165f818152600160205260408120805460ff191690557fe9dce8c992623ce791725b21e857e33248d1f190a25b5168313420eebdaae99d9080a2005b3461012e57602036600319011261012e5760043580151580910361012e57610561610974565b60ff8019600254169116176002555f80f35b3461012e57602036600319011261012e5761058c610876565b610594610974565b6001600160a01b03165f908152600560205260409020805460ff19166001179055005b3461012e575f36600319011261012e575f546040516001600160a01b039091168152602090f35b3461012e57602036600319011261012e576001600160a01b036105ff610876565b165f526006602052602060405f2054604051908152f35b3461012e575f36600319011261012e5761062e610974565b5f80546001600160a01b0319811682556001600160a01b03167f8be0079c531659141344cd1fd0a4f28419497f9722a3daafe3b4186f6b6457e08280a3005b3461012e57604036600319011261012e57610686610876565b61068e610974565b6001600160a01b03165f818152600160208181526040808420805460ff191690931790925560039052812060243590557f52f7e142287939a308a3d2abebb3f7f37ce0d349353f8b0eba55a99919d9568e9080a2005b3461012e57602036600319011261012e576001600160a01b03610705610876565b165f526005602052602060ff60405f2054166040519015158152f35b3461012e57602036600319011261012e576001600160a01b03610742610876565b165f526004602052602060405f2054604051908152f35b3461012e57602036600319011261012e57600435610775610974565b80471061081b575f80808084335af13d15610816573d610794816108c2565b906107a2604051928361088c565b81525f60203d92013e5b156107df576040519081527feaff4b37086828766ad3268786972c0cd24259d4c87a80f9d3963a3c3d999b0d60203392a2005b60405162461bcd60e51b815260206004820152600f60248201526e151c985b9cd9995c8819985a5b1959608a1b6044820152606490fd5b6107ac565b60405162461bcd60e51b8152602060048201526014602482015273496e73756666696369656e742062616c616e636560601b6044820152606490fd5b3461012e575f36600319011261012e5760209060ff6002541615158152f35b600435906001600160a01b038216820361012e57565b90601f8019910116810190811067ffffffffffffffff8211176108ae57604052565b634e487b7160e01b5f52604160045260245ffd5b67ffffffffffffffff81116108ae57601f01601f191660200190565b60ff60025416610940576001600160a01b03165f8181526001602052604090205460ff1661090b57505f90565b805f52600360205260405f20546109225750600190565b805f52600460205260405f2054905f52600360205260405f20541190565b50600190565b6040513481527f543ba50a5eec5e6178218e364b1d0f396157b3c8fa278522c2cb7fd99407d47460203392a2565b5f546001600160a01b0316330361098757565b63118cdaa760e01b5f523360045260245ffd5b81519190604183036109ca576109c39250602082015190606060408401519301515f1a90610a48565b9192909190565b50505f9160029190565b6004811015610a3457806109e6575050565b600181036109fd5763f645eedf60e01b5f5260045ffd5b60028103610a18575063fce698f760e01b5f5260045260245ffd5b600314610a225750565b6335e2f38360e21b5f5260045260245ffd5b634e487b7160e01b5f52602160045260245ffd5b91907f7fffffffffffffffffffffffffffffff5d576e7357a4501ddfe92f46681b20a08411610aca579160209360809260ff5f9560405194855216868401526040830152606082015282805260015afa15610abf575f516001600160a01b03811615610ab557905f905f90565b505f906001905f90565b6040513d5f823e3d90fd5b5050505f916003919056fea2646970667358221220ad2a5ef51861c48a5fc98077831dbd0fab147f57d9dbb65b6b973f281ee4cab964736f6c634300081f0033",
    "sourcePath": "/home/aki/Desktop/projects/optimistic-rollup-mvp/contract/contracts/paymaster.sol",
    "compiler": {
        "name": "solc",
        "version": "0.8.31+commit.fd3a2265"
    },
    "functionHashes": {
        "addSponsoredUser(address,uint256)": "6cad1d06",
        "addVerifier(address)": "9000b3d6",
        "deposit()": "d0e30db0",
        "globalSponsorship()": "02f8297c",
        "nonces(address)": "7ecebe00",
        "owner()": "8da5cb5b",
        "removeSponsoredUser(address)": "b080aae4",
        "removeVerifier(address)": "ca2dfd0a",
        "renounceOwnership()": "715018a6",
        "setGlobalSponsorship(bool)": "9abf4e2c",
        "shouldSponsor(address)": "c28f8f8d",
        "sponsorTransaction(address,uint256,bytes)": "d3bd965b",
        "sponsoredUsers(address)": "c580bef6",
        "transferOwnership(address)": "f2fde38b",
        "userSpendingLimit(address)": "f94e47fc",
        "userSpentAmount(address)": "5f17f381",
        "verifiers(address)": "6c824487",
        "withdraw(uint256)": "2e1a7d4d"
    },
    "gasEstimates": {
        "creation": {
            "codeDepositCost": "565400",
            "executionCost": "50688",
            "totalCost": "616088"
        },
        "external": {
            "addSponsoredUser(address,uint256)": "50072",
            "addVerifier(address)": "26848",
            "deposit()": "1858",
            "globalSponsorship()": "2260",
            "nonces(address)": "2538",
            "owner()": "2433",
            "removeSponsoredUser(address)": "28020",
            "removeVerifier(address)": "26952",
            "renounceOwnership()": "28160",
            "setGlobalSponsorship(bool)": "26759",
            "shouldSponsor(address)": "11339",
            "sponsorTransaction(address,uint256,bytes)": "infinite",
            "sponsoredUsers(address)": "2682",
            "transferOwnership(address)": "28522",
            "userSpendingLimit(address)": "2777",
            "userSpentAmount(address)": "2450",
            "verifiers(address)": "2484",
            "withdraw(uint256)": "infinite"
        }
    }
}