{
    "contractName": "StateCommitment",
    "abi": [
        {
            "inputs": [
                {
                    "internalType": "address",
                    "name": "_sequencer",
                    "type": "address"
                }
            ],
            "stateMutability": "nonpayable",
            "type": "constructor"
        },
        {
            "inputs": [
                {
                    "internalType": "address",
                    "name": "owner",
                    "type": "address"
                }
            ],
            "name": "OwnableInvalidOwner",
            "type": "error"
        },
        {
            "inputs": [
                {
                    "internalType": "address",
                    "name": "account",
                    "type": "address"
                }
            ],
            "name": "OwnableUnauthorizedAccount",
            "type": "error"
        },
        {
            "anonymous": false,
            "inputs": [
                {
                    "indexed": true,
                    "internalType": "uint256",
                    "name": "batchId",
                    "type": "uint256"
                },
                {
                    "indexed": false,
                    "internalType": "address",
                    "name": "challenger",
                    "type": "address"
                }
            ],
            "name": "BatchChallenged",
            "type": "event"
        },
        {
            "anonymous": false,
            "inputs": [
                {
                    "indexed": true,
                    "internalType": "uint256",
                    "name": "batchId",
                    "type": "uint256"
                }
            ],
            "name": "BatchFinalized",
            "type": "event"
        },
        {
            "anonymous": false,
            "inputs": [
                {
                    "indexed": true,
                    "internalType": "uint256",
                    "name": "batchId",
                    "type": "uint256"
                }
            ],
            "name": "BatchReverted",
            "type": "event"
        },
        {
            "anonymous": false,
            "inputs": [
                {
                    "indexed": true,
                    "internalType": "uint256",
                    "name": "batchId",
                    "type": "uint256"
                },
                {
                    "indexed": false,
                    "internalType": "bytes32",
                    "name": "stateRoot",
                    "type": "bytes32"
                },
                {
                    "indexed": false,
                    "internalType": "bytes32",
                    "name": "transactionRoot",
                    "type": "bytes32"
                },
                {
                    "indexed": false,
                    "internalType": "uint256",
                    "name": "l2BlockNumber",
                    "type": "uint256"
                }
            ],
            "name": "BatchSubmitted",
            "type": "event"
        },
        {
            "anonymous": false,
            "inputs": [
                {
                    "indexed": true,
                    "internalType": "address",
                    "name": "previousOwner",
                    "type": "address"
                },
                {
                    "indexed": true,
                    "internalType": "address",
                    "name": "newOwner",
                    "type": "address"
                }
            ],
            "name": "OwnershipTransferred",
            "type": "event"
        },
        {
            "inputs": [],
            "name": "FINALIZATION_PERIOD",
            "outputs": [
                {
                    "internalType": "uint256",
                    "name": "",
                    "type": "uint256"
                }
            ],
            "stateMutability": "view",
            "type": "function"
        },
        {
            "inputs": [
                {
                    "internalType": "address",
                    "name": "verifier",
                    "type": "address"
                }
            ],
            "name": "addVerifier",
            "outputs": [],
            "stateMutability": "nonpayable",
            "type": "function"
        },
        {
            "inputs": [
                {
                    "internalType": "uint256",
                    "name": "",
                    "type": "uint256"
                }
            ],
            "name": "batches",
            "outputs": [
                {
                    "internalType": "bytes32",
                    "name": "stateRoot",
                    "type": "bytes32"
                },
                {
                    "internalType": "bytes32",
                    "name": "transactionRoot",
                    "type": "bytes32"
                },
                {
                    "internalType": "uint256",
                    "name": "timestamp",
                    "type": "uint256"
                },
                {
                    "internalType": "uint256",
                    "name": "l2BlockNumber",
                    "type": "uint256"
                },
                {
                    "internalType": "address",
                    "name": "sequencer",
                    "type": "address"
                },
                {
                    "internalType": "bool",
                    "name": "finalized",
                    "type": "bool"
                }
            ],
            "stateMutability": "view",
            "type": "function"
        },
        {
            "inputs": [
                {
                    "internalType": "uint256",
                    "name": "batchId",
                    "type": "uint256"
                },
                {
                    "internalType": "bytes",
                    "name": "fraudProof",
                    "type": "bytes"
                }
            ],
            "name": "challengeBatch",
            "outputs": [],
            "stateMutability": "nonpayable",
            "type": "function"
        },
        {
            "inputs": [],
            "name": "currentBatchId",
            "outputs": [
                {
                    "internalType": "uint256",
                    "name": "",
                    "type": "uint256"
                }
            ],
            "stateMutability": "view",
            "type": "function"
        },
        {
            "inputs": [
                {
                    "internalType": "uint256",
                    "name": "batchId",
                    "type": "uint256"
                }
            ],
            "name": "finalizeBatch",
            "outputs": [],
            "stateMutability": "nonpayable",
            "type": "function"
        },
        {
            "inputs": [
                {
                    "internalType": "uint256",
                    "name": "batchId",
                    "type": "uint256"
                }
            ],
            "name": "getBatchStateRoot",
            "outputs": [
                {
                    "internalType": "bytes32",
                    "name": "",
                    "type": "bytes32"
                }
            ],
            "stateMutability": "view",
            "type": "function"
        },
        {
            "inputs": [
                {
                    "internalType": "uint256",
                    "name": "batchId",
                    "type": "uint256"
                }
            ],
            "name": "isBatchFinalized",
            "outputs": [
                {
                    "internalType": "bool",
                    "name": "",
                    "type": "bool"
                }
            ],
            "stateMutability": "view",
            "type": "function"
        },
        {
            "inputs": [],
            "name": "owner",
            "outputs": [
                {
                    "internalType": "address",
                    "name": "",
                    "type": "address"
                }
            ],
            "stateMutability": "view",
            "type": "function"
        },
        {
            "inputs": [
                {
                    "internalType": "address",
                    "name": "verifier",
                    "type": "address"
                }
            ],
            "name": "removeVerifier",
            "outputs": [],
            "stateMutability": "nonpayable",
            "type": "function"
        },
        {
            "inputs": [],
            "name": "renounceOwnership",
            "outputs": [],
            "stateMutability": "nonpayable",
            "type": "function"
        },
        {
            "inputs": [],
            "name": "sequencer",
            "outputs": [
                {
                    "internalType": "address",
                    "name": "",
                    "type": "address"
                }
            ],
            "stateMutability": "view",
            "type": "function"
        },
        {
            "inputs": [
                {
                    "internalType": "bytes32",
                    "name": "stateRoot",
                    "type": "bytes32"
                },
                {
                    "internalType": "bytes32",
                    "name": "transactionRoot",
                    "type": "bytes32"
                },
                {
                    "internalType": "uint256",
                    "name": "l2BlockNumber",
                    "type": "uint256"
                },
                {
                    "internalType": "bytes",
                    "name": "batchData",
                    "type": "bytes"
                }
            ],
            "name": "submitBatch",
            "outputs": [],
            "stateMutability": "nonpayable",
            "type": "function"
        },
        {
            "inputs": [
                {
                    "internalType": "address",
                    "name": "newOwner",
                    "type": "address"
                }
            ],
            "name": "transferOwnership",
            "outputs": [],
            "stateMutability": "nonpayable",
            "type": "function"
        },
        {
            "inputs": [
                {
                    "internalType": "address",
                    "name": "_sequencer",
                    "type": "address"
                }
            ],
            "name": "updateSequencer",
            "outputs": [],
            "stateMutability": "nonpayable",
            "type": "function"
        },
        {
            "inputs": [
                {
                    "internalType": "address",
                    "name": "",
                    "type": "address"
                }
            ],
            "name": "verifiers",
            "outputs": [
                {
                    "internalType": "bool",
                    "name": "",
                    "type": "bool"
                }
            ],
            "stateMutability": "view",
            "type": "function"
        }
    ],
    "bytecode": "6080346100e557601f6109c038819003918201601f19168301916001600160401b038311848410176100e9578084926020946040528339810103126100e557516001600160a01b038116908190036100e55733156100d2575f8054336001600160a01b0319821681178355604051939290916001600160a01b0316907f8be0079c531659141344cd1fd0a4f28419497f9722a3daafe3b4186f6b6457e09080a360018060a01b03196003541617600355335f52600460205260405f20600160ff198254161790556108c290816100fe8239f35b631e4fbdf760e01b5f525f60045260245ffd5b5f80fd5b634e487b7160e01b5f52604160045260245ffdfe6080806040526004361015610012575f80fd5b5f3560e01c9081630a763da11461079b57508063116a1f4214610766578063327047a51461064057806343ae20a3146105f65780635c1bba38146105ce5780636c8244871461058d578063715018a6146105365780638da5cb5b1461050f5780639000b3d6146104c7578063b32c4d8d1461045b578063ca2dfd0a14610416578063d12c51e6146103ec578063e33491a714610317578063f25c815514610176578063f2fde38b146100ed5763ff61cc93146100cc575f80fd5b346100e9575f3660031901126100e957602060405162093a808152f35b5f80fd5b346100e95760203660031901126100e9576004356001600160a01b038116908190036100e95761011b610866565b8015610163575f80546001600160a01b03198116831782556001600160a01b0316907f8be0079c531659141344cd1fd0a4f28419497f9722a3daafe3b4186f6b6457e09080a3005b631e4fbdf760e01b5f525f60045260245ffd5b346100e95760803660031901126100e95760043560443560243560643567ffffffffffffffff81116100e9576101b09036906004016107b5565b50506003546001600160a01b031633036102e157600254926040519260c084019284841067ffffffffffffffff8511176102cd577f10494fd8d078f65a2fe29b29e5d55c999ce38ad208f875aac615fcad550bd523946060946040528381526020810182815260046040830192428452878101868152608082019433865260a08301945f86528c5f52600160205260405f2093518455516001840155516002830155516003820155019160018060a01b039051166bffffffffffffffffffffffff60a01b83541617825551151581549060ff60a01b9060a01b169060ff60a01b191617905560405192835260208301526040820152a26002545f1981146102b957600101600255005b634e487b7160e01b5f52601160045260245ffd5b634e487b7160e01b5f52604160045260245ffd5b60405162461bcd60e51b815260206004820152600e60248201526d27b7363c9039b2b8bab2b731b2b960911b6044820152606490fd5b346100e95760203660031901126100e957600435805f52600160205260405f20600460028201549161034a8315156107e3565b019081549061035f60ff8360a01c1615610826565b62093a8081018091116102b95742106103a75760ff60a01b1916600160a01b1790557f5cff112f1cb588779b4e6aae6baf0d738747fcf132f0ff202adcec605f9cabdf5f80a2005b60405162461bcd60e51b815260206004820152601a60248201527f4368616c6c656e676520706572696f64206e6f7420656e6465640000000000006044820152606490fd5b346100e95760203660031901126100e9576004355f526001602052602060405f2054604051908152f35b346100e95760203660031901126100e9576004356001600160a01b038116908190036100e957610444610866565b5f908152600460205260409020805460ff19169055005b346100e95760203660031901126100e9576004355f52600160205260c060405f2060ff8154916001810154906002810154600460038301549201549260405195865260208601526040850152606084015260018060a01b038116608084015260a01c16151560a0820152f35b346100e95760203660031901126100e9576004356001600160a01b038116908190036100e9576104f5610866565b5f908152600460205260409020805460ff19166001179055005b346100e9575f3660031901126100e9575f546040516001600160a01b039091168152602090f35b346100e9575f3660031901126100e95761054e610866565b5f80546001600160a01b0319811682556001600160a01b03167f8be0079c531659141344cd1fd0a4f28419497f9722a3daafe3b4186f6b6457e08280a3005b346100e95760203660031901126100e9576004356001600160a01b038116908190036100e9575f526004602052602060ff60405f2054166040519015158152f35b346100e9575f3660031901126100e9576003546040516001600160a01b039091168152602090f35b346100e95760203660031901126100e9576004356001600160a01b038116908190036100e957610624610866565b6bffffffffffffffffffffffff60a01b60035416176003555f80f35b346100e95760403660031901126100e95760043560243567ffffffffffffffff81116100e9576106749036906004016107b5565b5050335f52600460205260ff60405f2054161561073057805f5260016020526106b960ff600460405f206106ad600282015415156107e3565b015460a01c1615610826565b807f341905abd65f49eb35219139a0ccdce4a6d57d73972347db266f11adcb5a8c896020604051338152a2805f5260016020525f60046040822082815582600182015582600282015582600382015501557f83fe774c298a3c25f96182f9d6289c26d5e62b1e18d6bdacedb8afe33b8b5c755f80a2005b60405162461bcd60e51b815260206004820152600e60248201526d2737ba1030903b32b934b334b2b960911b6044820152606490fd5b346100e95760203660031901126100e9576004355f526001602052602060ff600460405f20015460a01c166040519015158152f35b346100e9575f3660031901126100e9576020906002548152f35b9181601f840112156100e95782359167ffffffffffffffff83116100e957602083818601950101116100e957565b156107ea57565b60405162461bcd60e51b815260206004820152601460248201527310985d18da08191bd95cc81b9bdd08195e1a5cdd60621b6044820152606490fd5b1561082d57565b60405162461bcd60e51b8152602060048201526011602482015270105b1c9958591e48199a5b985b1a5e9959607a1b6044820152606490fd5b5f546001600160a01b0316330361087957565b63118cdaa760e01b5f523360045260245ffdfea264697066735822122080976ae7b90f4cc5ce921235a62d0dd2fc161ed59552e2379d11ca302030936d64736f6c634300081f0033",
    "sourcePath": "/home/aki/Desktop/projects/optimistic-rollup-mvp/contract/contracts/statecommitment.sol",
    "compiler": {
        "name": "solc",
        "version": "0.8.31+commit.fd3a2265"
    },
    "functionHashes": {
        "FINALIZATION_PERIOD()": "ff61cc93",
        "addVerifier(address)": "9000b3d6",
        "batches(uint256)": "b32c4d8d",
        "challengeBatch(uint256,bytes)": "327047a5",
        "currentBatchId()": "0a763da1",
        "finalizeBatch(uint256)": "e33491a7",
        "getBatchStateRoot(uint256)": "d12c51e6",
        "isBatchFinalized(uint256)": "116a1f42",
        "owner()": "8da5cb5b",
        "removeVerifier(address)": "ca2dfd0a",
        "renounceOwnership()": "715018a6",
        "sequencer()": "5c1bba38",
        "submitBatch(bytes32,bytes32,uint256,bytes)": "f25c8155",
        "transferOwnership(address)": "f2fde38b",
        "updateSequencer(address)": "43ae20a3",
        "verifiers(address)": "6c824487"
    },
    "gasEstimates": {
        "creation": {
            "codeDepositCost": "448400",
            "executionCost": "infinite",
            "totalCost": "infinite"
        },
        "external": {
            "FINALIZATION_PERIOD()": "480",
            "addVerifier(address)": "26809",
            "batches(uint256)": "11081",
            "challengeBatch(uint256,bytes)": "34578",
            "currentBatchId()": "2248",
            "finalizeBatch(uint256)": "28110",
            "getBatchStateRoot(uint256)": "2563",
            "isBatchFinalized(uint256)": "2367",
            "owner()": "2433",
            "removeVerifier(address)": "26847",
            "renounceOwnership()": "28182",
            "sequencer()": "2368",
            "submitBatch(bytes32,bytes32,uint256,bytes)": "168253",
            "transferOwnership(address)": "28439",
            "updateSequencer(address)": "26636",
            "verifiers(address)": "2489"
        }
    }
}